{
  "_format": "hh-sol-artifact-1",
  "contractName": "PriceOracleV2",
  "sourceName": "contracts/PriceOracleV2.sol",
  "abi": [
    {
      "inputs": [
        {
          "internalType": "contract IUniswapV2Factory",
          "name": "_uniswapFactory",
          "type": "address"
        }
      ],
      "stateMutability": "nonpayable",
      "type": "constructor"
    },
    {
      "inputs": [
        {
          "internalType": "address",
          "name": "desToken",
          "type": "address"
        },
        {
          "internalType": "address",
          "name": "quoteToken",
          "type": "address"
        }
      ],
      "name": "getPrice",
      "outputs": [
        {
          "internalType": "uint256",
          "name": "",
          "type": "uint256"
        },
        {
          "internalType": "uint8",
          "name": "",
          "type": "uint8"
        }
      ],
      "stateMutability": "view",
      "type": "function"
    },
    {
      "inputs": [],
      "name": "uniswapFactory",
      "outputs": [
        {
          "internalType": "contract IUniswapV2Factory",
          "name": "",
          "type": "address"
        }
      ],
      "stateMutability": "view",
      "type": "function"
    }
  ],
  "bytecode": "0x60a060405234801561001057600080fd5b5060405161089438038061089483398181016040528101906100329190610084565b8073ffffffffffffffffffffffffffffffffffffffff1660808173ffffffffffffffffffffffffffffffffffffffff1660601b8152505050610108565b60008151905061007e816100f1565b92915050565b60006020828403121561009657600080fd5b60006100a48482850161006f565b91505092915050565b60006100b8826100d1565b9050919050565b60006100ca826100ad565b9050919050565b600073ffffffffffffffffffffffffffffffffffffffff82169050919050565b6100fa816100bf565b811461010557600080fd5b50565b60805160601c61076961012b60003960008181608c015260b501526107696000f3fe608060405234801561001057600080fd5b50600436106100365760003560e01c80638bdb2afa1461003b578063ac41865a14610059575b600080fd5b61004361008a565b604051610050919061052a565b60405180910390f35b610073600480360381019061006e919061043a565b6100ae565b604051610081929190610545565b60405180910390f35b7f000000000000000000000000000000000000000000000000000000000000000081565b60008060007f000000000000000000000000000000000000000000000000000000000000000073ffffffffffffffffffffffffffffffffffffffff1663e6a4390586866040518363ffffffff1660e01b815260040161010e929190610501565b60206040518083038186803b15801561012657600080fd5b505afa15801561013a573d6000803e3d6000fd5b505050506040513d601f19601f8201168201806040525081019061015e9190610411565b9050600073ffffffffffffffffffffffffffffffffffffffff168173ffffffffffffffffffffffffffffffffffffffff1614156101a3576000600a925092505061038a565b6000808273ffffffffffffffffffffffffffffffffffffffff16630902f1ac6040518163ffffffff1660e01b815260040160606040518083038186803b1580156101ec57600080fd5b505afa158015610200573d6000803e3d6000fd5b505050506040513d601f19601f820116820180604052508101906102249190610476565b506dffffffffffffffffffffffffffff1691506dffffffffffffffffffffffffffff1691508273ffffffffffffffffffffffffffffffffffffffff16630dfe16816040518163ffffffff1660e01b815260040160206040518083038186803b15801561028f57600080fd5b505afa1580156102a3573d6000803e3d6000fd5b505050506040513d601f19601f820116820180604052508101906102c79190610411565b73ffffffffffffffffffffffffffffffffffffffff168773ffffffffffffffffffffffffffffffffffffffff16141561034457610336826103286402540be4006fffffffffffffffffffffffffffffffff168461039190919063ffffffff16565b6103a790919063ffffffff16565b600a9450945050505061038a565b610380816103726402540be4006fffffffffffffffffffffffffffffffff168561039190919063ffffffff16565b6103a790919063ffffffff16565b600a945094505050505b9250929050565b6000818361039f919061059f565b905092915050565b600081836103b5919061056e565b905092915050565b6000813590506103cc816106ee565b92915050565b6000815190506103e1816106ee565b92915050565b6000815190506103f681610705565b92915050565b60008151905061040b8161071c565b92915050565b60006020828403121561042357600080fd5b6000610431848285016103d2565b91505092915050565b6000806040838503121561044d57600080fd5b600061045b858286016103bd565b925050602061046c858286016103bd565b9150509250929050565b60008060006060848603121561048b57600080fd5b6000610499868287016103e7565b93505060206104aa868287016103e7565b92505060406104bb868287016103fc565b9150509250925092565b6104ce816105f9565b82525050565b6104dd8161066c565b82525050565b6104ec81610645565b82525050565b6104fb8161065f565b82525050565b600060408201905061051660008301856104c5565b61052360208301846104c5565b9392505050565b600060208201905061053f60008301846104d4565b92915050565b600060408201905061055a60008301856104e3565b61056760208301846104f2565b9392505050565b600061057982610645565b915061058483610645565b925082610594576105936106bf565b5b828204905092915050565b60006105aa82610645565b91506105b583610645565b9250817fffffffffffffffffffffffffffffffffffffffffffffffffffffffffffffffff04831182151516156105ee576105ed610690565b5b828202905092915050565b600061060482610625565b9050919050565b60006dffffffffffffffffffffffffffff82169050919050565b600073ffffffffffffffffffffffffffffffffffffffff82169050919050565b6000819050919050565b600063ffffffff82169050919050565b600060ff82169050919050565b60006106778261067e565b9050919050565b600061068982610625565b9050919050565b7f4e487b7100000000000000000000000000000000000000000000000000000000600052601160045260246000fd5b7f4e487b7100000000000000000000000000000000000000000000000000000000600052601260045260246000fd5b6106f7816105f9565b811461070257600080fd5b50565b61070e8161060b565b811461071957600080fd5b50565b6107258161064f565b811461073057600080fd5b5056fea2646970667358221220cf900a06500ee8cdd1cc2bdcb6048037c052f9e70e488444bfca7d6e6f7bbc6964736f6c63430008040033",
  "linkReferences": {},
  "deployedLinkReferences": {}
}